{"abi":[{"type":"function","name":"createJob","inputs":[{"name":"maxPay","type":"uint256","internalType":"uint256"}],"outputs":[{"name":"","type":"bytes","internalType":"bytes"}],"stateMutability":"nonpayable"},{"type":"function","name":"createJobCallback","inputs":[{"name":"createdJobID","type":"uint256","internalType":"uint256"}],"outputs":[],"stateMutability":"nonpayable"},{"type":"function","name":"isMatch","inputs":[{"name":"jobID","type":"uint256","internalType":"uint256"},{"name":"candidateID","type":"bytes","internalType":"bytes"}],"outputs":[{"name":"","type":"bytes","internalType":"bytes"}],"stateMutability":"nonpayable"},{"type":"function","name":"matchedCallback","inputs":[{"name":"matched","type":"bool","internalType":"bool"}],"outputs":[],"stateMutability":"nonpayable"},{"type":"function","name":"minPaySetCallback","inputs":[],"outputs":[],"stateMutability":"nonpayable"},{"type":"function","name":"mootCallback","inputs":[],"outputs":[],"stateMutability":"nonpayable"},{"type":"function","name":"newCandidate","inputs":[{"name":"jobID","type":"uint256","internalType":"uint256"},{"name":"candidateID","type":"bytes","internalType":"bytes"}],"outputs":[{"name":"","type":"bytes","internalType":"bytes"}],"stateMutability":"nonpayable"},{"type":"function","name":"setMinPay","inputs":[{"name":"jobID","type":"uint256","internalType":"uint256"},{"name":"candidateID","type":"bytes","internalType":"bytes"},{"name":"minPay","type":"uint256","internalType":"uint256"}],"outputs":[{"name":"","type":"bytes","internalType":"bytes"}],"stateMutability":"nonpayable"},{"type":"event","name":"offchainJobCreated","inputs":[{"name":"createdJobID","type":"uint256","indexed":false,"internalType":"uint256"}],"anonymous":false},{"type":"event","name":"offchainMatched","inputs":[{"name":"matched","type":"bool","indexed":false,"internalType":"bool"}],"anonymous":false},{"type":"event","name":"offchainMinPaySet","inputs":[],"anonymous":false},{"type":"event","name":"onchainJobCreated","inputs":[{"name":"createdJobID","type":"uint256","indexed":false,"internalType":"uint256"}],"anonymous":false},{"type":"event","name":"onchainMatched","inputs":[{"name":"matched","type":"bool","indexed":false,"internalType":"bool"}],"anonymous":false},{"type":"event","name":"onchainMinPaySet","inputs":[],"anonymous":false}],"bytecode":{"object":"0x608060405234801561001057600080fd5b50610f10806100206000396000f3fe608060405234801561001057600080fd5b50600436106100885760003560e01c8063949447811161005b57806394944781146100e6578063d1e5813f146100f9578063d9bac0b6146100a0578063f4b1d3761461010c57600080fd5b80632b54ce641461008d5780635c91f1b7146100a257806375d8d091146100cb5780638e073173146100de575b600080fd5b6100a061009b366004610a51565b61011f565b005b6100b56100b0366004610b68565b610198565b6040516100c29190610bdc565b60405180910390f35b6100a06100d9366004610c0f565b6102a5565b6100a0610315565b6100b56100f4366004610c28565b610380565b6100b5610107366004610c28565b610419565b6100b561011a366004610c0f565b6104d3565b61015f6000368080601f0160208091040260200160405190810160405280939291908181526020018383808284376000920191909152506105b492505050565b60405181151581527f15c7c64dc68a5e98c8ecf875f7e6c529e2162a116ea58fa335d92c447b201a12906020015b60405180910390a150565b6060600080858152602001908152602001600020600201836040516101bd9190610c6f565b9081526040519081900360200190205460ff166101d957600080fd5b81600080868152602001908152602001600020600301846040516101fd9190610c6f565b9081526040805191829003602090810183209390935560008781529283905282206002019061022d908690610c6f565b908152604051908190036020018120805492151560ff19909316929092179091557f6c837d069b6e0847f0060d77fdaee2ddee6bb55eba5c49cffdfd58cb5f7e01a490600090a1506040805160048152602481019091526020810180516001600160e01b0316638e07317360e01b1790529392505050565b6102e56000368080601f0160208091040260200160405190810160405280939291908181526020018383808284376000920191909152506105b492505050565b6040518181527f5e1b2a24c60ae7c3bae3550f1f3f6e383edd88336378736e7df940d8f8970d319060200161018d565b6103556000368080601f0160208091040260200160405190810160405280939291908181526020018383808284376000920191909152506105b492505050565b6040517f234a5c385714b9f4b90d40fc06f2c44ae18fa62af0bfce516f14e478378d830d90600090a1565b6000828152602081905260409020546060906001600160a01b031633146103a657600080fd5b6001600080858152602001908152602001600020600201836040516103cb9190610c6f565b9081526040805160209281900383018120805460ff1916941515949094179093556004835260248301905281018051636cdd605b60e11b6001600160e01b0390911617905290505b92915050565b60008281526020819052604080822060018101549151606093929160030190610443908690610c6f565b908152602001604051809103902054111590507f864709daca86a0605d86d05951edc937bec31132f8944ec00f72e65e8e404eb081604051610489911515815260200190565b60405180910390a16040805191151560248084019190915281518084039091018152604490920190526020810180516001600160e01b0316630ad5339960e21b1790529392505050565b60018054600090815260208190526040812080546001600160a01b031916331781558083018490558254606093919290919061050e83610ca1565b91905055507f20034a575deb69ccc0745cba07463f0e47ba4374433ad20016e9c8ba4872d808600180546105429190610cba565b60405190815260200160405180910390a1600180546375d8d09160e01b9161056991610cba565b60405160240161057b91815260200190565b60408051601f198184030181529190526020810180516001600160e01b03166001600160e01b0319909316929092179091529392505050565b60006105bf826106f3565b9050815181036105cd575050565b60008183516105dc9190610cba565b905060008167ffffffffffffffff8111156105f9576105f9610a7a565b6040519080825280601f01601f191660200182016040528015610623576020820181803683370190505b50905060005b82811015610692578461063c8286610ccd565b8151811061064c5761064c610ce0565b602001015160f81c60f81b82828151811061066957610669610ce0565b60200101906001600160f81b031916908160001a9053508061068a81610ca1565b915050610629565b506000818060200190518101906106a99190610d5f565b905060005b81518110156106eb576106d98282815181106106cc576106cc610ce0565b602002602001015161085f565b806106e381610ca1565b9150506106ae565b505050505050565b6000805b82518110156108595760408051808201909152600381526254354360e81b6020909101528251601560fa1b9084908390811061073557610735610ce0565b01602001516001600160f81b03191603610847576001805b6040518060400160405280600381526020016254354360e81b8152505181101561080e57845161077d8285610ccd565b1015806107ee57506040518060400160405280600381526020016254354360e81b81525081815181106107b2576107b2610ce0565b01602001516001600160f81b031916856107cc8386610ccd565b815181106107dc576107dc610ce0565b01602001516001600160f81b03191614155b156107fc576000915061080e565b8061080681610ca1565b91505061074d565b508015610845576040518060400160405280600381526020016254354360e81b815250518261083d9190610ccd565b949350505050565b505b8061085181610ca1565b9150506106f7565b50505190565b6040810151805160208301515160000361087e578060208301a0505050565b8260200151516001036108bb57600083602001516000815181106108a4576108a4610ce0565b60200260200101519050808260208501a150505050565b82602001515160020361091d57600083602001516000815181106108e1576108e1610ce0565b602002602001015190506000846020015160018151811061090457610904610ce0565b6020026020010151905080828460208701a25050505050565b8260200151516003036109a4576000836020015160008151811061094357610943610ce0565b602002602001015190506000846020015160018151811061096657610966610ce0565b602002602001015190506000856020015160028151811061098957610989610ce0565b602002602001015190508082848660208901a3505050505050565b826020015151600403610a4c57600083602001516000815181106109ca576109ca610ce0565b60200260200101519050600084602001516001815181106109ed576109ed610ce0565b6020026020010151905060008560200151600281518110610a1057610a10610ce0565b6020026020010151905060008660200151600381518110610a3357610a33610ce0565b60200260200101519050808284868860208b01a4505050505b505050565b600060208284031215610a6357600080fd5b81358015158114610a7357600080fd5b9392505050565b634e487b7160e01b600052604160045260246000fd5b6040516060810167ffffffffffffffff81118282101715610ab357610ab3610a7a565b60405290565b604051601f8201601f1916810167ffffffffffffffff81118282101715610ae257610ae2610a7a565b604052919050565b600067ffffffffffffffff821115610b0457610b04610a7a565b50601f01601f191660200190565b600082601f830112610b2357600080fd5b8135610b36610b3182610aea565b610ab9565b818152846020838601011115610b4b57600080fd5b816020850160208301376000918101602001919091529392505050565b600080600060608486031215610b7d57600080fd5b83359250602084013567ffffffffffffffff811115610b9b57600080fd5b610ba786828701610b12565b925050604084013590509250925092565b60005b83811015610bd3578181015183820152602001610bbb565b50506000910152565b6020815260008251806020840152610bfb816040850160208701610bb8565b601f01601f19169190910160400192915050565b600060208284031215610c2157600080fd5b5035919050565b60008060408385031215610c3b57600080fd5b82359150602083013567ffffffffffffffff811115610c5957600080fd5b610c6585828601610b12565b9150509250929050565b60008251610c81818460208701610bb8565b9190910192915050565b634e487b7160e01b600052601160045260246000fd5b600060018201610cb357610cb3610c8b565b5060010190565b8181038181111561041357610413610c8b565b8082018082111561041357610413610c8b565b634e487b7160e01b600052603260045260246000fd5b600067ffffffffffffffff821115610d1057610d10610a7a565b5060051b60200190565b600082601f830112610d2b57600080fd5b8151610d39610b3182610aea565b818152846020838601011115610d4e57600080fd5b61083d826020830160208701610bb8565b60006020808385031215610d7257600080fd5b825167ffffffffffffffff80821115610d8a57600080fd5b818501915085601f830112610d9e57600080fd5b8151610dac610b3182610cf6565b81815260059190911b83018401908481019088831115610dcb57600080fd5b8585015b83811015610ecd57805185811115610de657600080fd5b86016060818c03601f19011215610dfc57600080fd5b610e04610a90565b818901516001600160a01b0381168114610e1d57600080fd5b8152604082015187811115610e3157600080fd5b8201603f81018d13610e4257600080fd5b89810151610e52610b3182610cf6565b81815260059190911b8201604001908b8101908f831115610e7257600080fd5b6040840193505b82841015610e925783518252928c0192908c0190610e79565b848d0152505050606082015187811115610eab57600080fd5b610eb98d8b83860101610d1a565b604083015250845250918601918601610dcf565b509897505050505050505056fea264697066735822122013efbb7f2e39a7d203d05e9e2c5f664cc4f7f0e2a55cb22530b8a38d3ca8a2d164736f6c63430008130033","linkReferences":{}},"methodIdentifiers":{"createJob(uint256)":"f4b1d376","createJobCallback(uint256)":"75d8d091","isMatch(uint256,bytes)":"d1e5813f","matchedCallback(bool)":"2b54ce64","minPaySetCallback()":"8e073173","mootCallback()":"d9bac0b6","newCandidate(uint256,bytes)":"94944781","setMinPay(uint256,bytes,uint256)":"5c91f1b7"},"id":23}