{"abi":[{"type":"function","name":"ANYALLOWED","inputs":[],"outputs":[{"name":"","type":"address","internalType":"address"}],"stateMutability":"view"},{"type":"function","name":"BUILD_ETH_BLOCK","inputs":[],"outputs":[{"name":"","type":"address","internalType":"address"}],"stateMutability":"view"},{"type":"function","name":"BUILD_ETH_BLOCK_TO","inputs":[],"outputs":[{"name":"","type":"address","internalType":"address"}],"stateMutability":"view"},{"type":"function","name":"CONFIDENTIAL_INPUTS","inputs":[],"outputs":[{"name":"","type":"address","internalType":"address"}],"stateMutability":"view"},{"type":"function","name":"CONFIDENTIAL_RETRIEVE","inputs":[],"outputs":[{"name":"","type":"address","internalType":"address"}],"stateMutability":"view"},{"type":"function","name":"CONFIDENTIAL_STORE","inputs":[],"outputs":[{"name":"","type":"address","internalType":"address"}],"stateMutability":"view"},{"type":"function","name":"CONTEXT_GET","inputs":[],"outputs":[{"name":"","type":"address","internalType":"address"}],"stateMutability":"view"},{"type":"function","name":"DO_HTTPREQUEST","inputs":[],"outputs":[{"name":"","type":"address","internalType":"address"}],"stateMutability":"view"},{"type":"function","name":"ETHCALL","inputs":[],"outputs":[{"name":"","type":"address","internalType":"address"}],"stateMutability":"view"},{"type":"function","name":"EXTRACT_HINT","inputs":[],"outputs":[{"name":"","type":"address","internalType":"address"}],"stateMutability":"view"},{"type":"function","name":"FETCH_DATA_RECORDS","inputs":[],"outputs":[{"name":"","type":"address","internalType":"address"}],"stateMutability":"view"},{"type":"function","name":"FILL_MEV_SHARE_BUNDLE","inputs":[],"outputs":[{"name":"","type":"address","internalType":"address"}],"stateMutability":"view"},{"type":"function","name":"IS_CONFIDENTIAL_ADDR","inputs":[],"outputs":[{"name":"","type":"address","internalType":"address"}],"stateMutability":"view"},{"type":"function","name":"NEW_BUILDER","inputs":[],"outputs":[{"name":"","type":"address","internalType":"address"}],"stateMutability":"view"},{"type":"function","name":"NEW_DATA_RECORD","inputs":[],"outputs":[{"name":"","type":"address","internalType":"address"}],"stateMutability":"view"},{"type":"function","name":"PRIVATE_KEY_GEN","inputs":[],"outputs":[{"name":"","type":"address","internalType":"address"}],"stateMutability":"view"},{"type":"function","name":"RANDOM_BYTES","inputs":[],"outputs":[{"name":"","type":"address","internalType":"address"}],"stateMutability":"view"},{"type":"function","name":"SIGN_ETH_TRANSACTION","inputs":[],"outputs":[{"name":"","type":"address","internalType":"address"}],"stateMutability":"view"},{"type":"function","name":"SIGN_MESSAGE","inputs":[],"outputs":[{"name":"","type":"address","internalType":"address"}],"stateMutability":"view"},{"type":"function","name":"SIMULATE_BUNDLE","inputs":[],"outputs":[{"name":"","type":"address","internalType":"address"}],"stateMutability":"view"},{"type":"function","name":"SIMULATE_TRANSACTION","inputs":[],"outputs":[{"name":"","type":"address","internalType":"address"}],"stateMutability":"view"},{"type":"function","name":"SUBMIT_BUNDLE_JSON_RPC","inputs":[],"outputs":[{"name":"","type":"address","internalType":"address"}],"stateMutability":"view"},{"type":"function","name":"SUBMIT_ETH_BLOCK_TO_RELAY","inputs":[],"outputs":[{"name":"","type":"address","internalType":"address"}],"stateMutability":"view"},{"type":"error","name":"PeekerReverted","inputs":[{"name":"","type":"address","internalType":"address"},{"name":"","type":"bytes","internalType":"bytes"}]}],"bytecode":{"object":"0x6102ba61003a600b82828239805160001a60731461002d57634e487b7160e01b600052600060045260246000fd5b30600052607381538281f3fe73000000000000000000000000000000000000000030146080604052600436106101565760003560e01c80638a088763116100cd578063d91525db11610086578063d91525db14610232578063de3dafbf1461023d578063f057975914610258578063f0608b1c14610263578063f28f42711461026e578063fb18f5f01461027957600080fd5b80638a088763146101f057806394804c69146101fb578063a155398614610206578063ad05aae414610211578063aec633c91461021c578063b61b127d1461022757600080fd5b80634aeeccc91161011f5780634aeeccc9146101ae578063581ff5af146101b95780636902e21d146101c457806369094cbc146101cf578063744795b9146101da578063751afe2c146101e557600080fd5b80626a80651461015b57806301c1953014610182578063040e51831461018d5780632a4788d614610198578063440098ff146101a3575b600080fd5b610166637770000b81565b6040516001600160a01b03909116815260200160405180910390f35b610166634320000181565b610166634210000381565b610166635320000281565b610166635330000381565b610166635320000381565b610166634203000181565b610166634320000281565b610166634201000181565b610166634010000181565b610166634210003781565b610166634203000081565b610166634210000181565b610166634010000381565b610166634202000081565b610166634210000681565b610166634210000081565b610166634201000081565b61016673c8df3686b4afb2bb53e60eae97ef043fe03fb82981565b610166634202000181565b610166634300000181565b610166635320000181565b61016663421000028156fea26469706673582212201cfb6f51c7ce22ea453b0a2f021d9162eb6c0e69984de1a3ec11ca2d31edbb5464736f6c63430008130033","linkReferences":{}},"methodIdentifiers":{"ANYALLOWED()":"de3dafbf","BUILD_ETH_BLOCK()":"94804c69","BUILD_ETH_BLOCK_TO()":"aec633c9","CONFIDENTIAL_INPUTS()":"69094cbc","CONFIDENTIAL_RETRIEVE()":"f0579759","CONFIDENTIAL_STORE()":"ad05aae4","CONTEXT_GET()":"440098ff","DO_HTTPREQUEST()":"6902e21d","ETHCALL()":"040e5183","EXTRACT_HINT()":"751afe2c","FETCH_DATA_RECORDS()":"581ff5af","FILL_MEV_SHARE_BUNDLE()":"01c19530","IS_CONFIDENTIAL_ADDR()":"d91525db","NEW_BUILDER()":"f28f4271","NEW_DATA_RECORD()":"8a088763","PRIVATE_KEY_GEN()":"4aeeccc9","RANDOM_BYTES()":"006a8065","SIGN_ETH_TRANSACTION()":"744795b9","SIGN_MESSAGE()":"a1553986","SIMULATE_BUNDLE()":"b61b127d","SIMULATE_TRANSACTION()":"2a4788d6","SUBMIT_BUNDLE_JSON_RPC()":"f0608b1c","SUBMIT_ETH_BLOCK_TO_RELAY()":"fb18f5f0"},"id":21}